{
  "_format": "hh-sol-artifact-1",
  "contractName": "NFTBriks",
  "sourceName": "contracts/NFTBriks.sol",
  "abi": [
    {
      "inputs": [],
      "stateMutability": "nonpayable",
      "type": "constructor"
    },
    {
      "anonymous": false,
      "inputs": [
        {
          "indexed": true,
          "internalType": "address",
          "name": "owner",
          "type": "address"
        },
        {
          "indexed": true,
          "internalType": "address",
          "name": "approved",
          "type": "address"
        },
        {
          "indexed": true,
          "internalType": "uint256",
          "name": "tokenId",
          "type": "uint256"
        }
      ],
      "name": "Approval",
      "type": "event"
    },
    {
      "anonymous": false,
      "inputs": [
        {
          "indexed": true,
          "internalType": "address",
          "name": "owner",
          "type": "address"
        },
        {
          "indexed": true,
          "internalType": "address",
          "name": "operator",
          "type": "address"
        },
        {
          "indexed": false,
          "internalType": "bool",
          "name": "approved",
          "type": "bool"
        }
      ],
      "name": "ApprovalForAll",
      "type": "event"
    },
    {
      "anonymous": false,
      "inputs": [
        {
          "indexed": true,
          "internalType": "address",
          "name": "previousOwner",
          "type": "address"
        },
        {
          "indexed": true,
          "internalType": "address",
          "name": "newOwner",
          "type": "address"
        }
      ],
      "name": "OwnershipTransferred",
      "type": "event"
    },
    {
      "anonymous": false,
      "inputs": [
        {
          "indexed": true,
          "internalType": "address",
          "name": "from",
          "type": "address"
        },
        {
          "indexed": true,
          "internalType": "address",
          "name": "to",
          "type": "address"
        },
        {
          "indexed": true,
          "internalType": "uint256",
          "name": "tokenId",
          "type": "uint256"
        }
      ],
      "name": "Transfer",
      "type": "event"
    },
    {
      "inputs": [
        {
          "internalType": "address",
          "name": "to",
          "type": "address"
        },
        {
          "internalType": "uint256",
          "name": "tokenId",
          "type": "uint256"
        }
      ],
      "name": "approve",
      "outputs": [],
      "stateMutability": "nonpayable",
      "type": "function"
    },
    {
      "inputs": [
        {
          "internalType": "address",
          "name": "owner",
          "type": "address"
        }
      ],
      "name": "balanceOf",
      "outputs": [
        {
          "internalType": "uint256",
          "name": "",
          "type": "uint256"
        }
      ],
      "stateMutability": "view",
      "type": "function"
    },
    {
      "inputs": [
        {
          "internalType": "uint256",
          "name": "tokenId",
          "type": "uint256"
        }
      ],
      "name": "getApproved",
      "outputs": [
        {
          "internalType": "address",
          "name": "",
          "type": "address"
        }
      ],
      "stateMutability": "view",
      "type": "function"
    },
    {
      "inputs": [
        {
          "internalType": "address",
          "name": "owner",
          "type": "address"
        },
        {
          "internalType": "address",
          "name": "operator",
          "type": "address"
        }
      ],
      "name": "isApprovedForAll",
      "outputs": [
        {
          "internalType": "bool",
          "name": "",
          "type": "bool"
        }
      ],
      "stateMutability": "view",
      "type": "function"
    },
    {
      "inputs": [
        {
          "internalType": "address",
          "name": "recipient",
          "type": "address"
        },
        {
          "internalType": "string",
          "name": "tokenURI",
          "type": "string"
        }
      ],
      "name": "mintNFT",
      "outputs": [
        {
          "internalType": "uint256",
          "name": "",
          "type": "uint256"
        }
      ],
      "stateMutability": "payable",
      "type": "function"
    },
    {
      "inputs": [],
      "name": "name",
      "outputs": [
        {
          "internalType": "string",
          "name": "",
          "type": "string"
        }
      ],
      "stateMutability": "view",
      "type": "function"
    },
    {
      "inputs": [],
      "name": "owner",
      "outputs": [
        {
          "internalType": "address",
          "name": "",
          "type": "address"
        }
      ],
      "stateMutability": "view",
      "type": "function"
    },
    {
      "inputs": [
        {
          "internalType": "uint256",
          "name": "tokenId",
          "type": "uint256"
        }
      ],
      "name": "ownerOf",
      "outputs": [
        {
          "internalType": "address",
          "name": "",
          "type": "address"
        }
      ],
      "stateMutability": "view",
      "type": "function"
    },
    {
      "inputs": [],
      "name": "renounceOwnership",
      "outputs": [],
      "stateMutability": "nonpayable",
      "type": "function"
    },
    {
      "inputs": [
        {
          "internalType": "address",
          "name": "from",
          "type": "address"
        },
        {
          "internalType": "address",
          "name": "to",
          "type": "address"
        },
        {
          "internalType": "uint256",
          "name": "tokenId",
          "type": "uint256"
        }
      ],
      "name": "safeTransferFrom",
      "outputs": [],
      "stateMutability": "nonpayable",
      "type": "function"
    },
    {
      "inputs": [
        {
          "internalType": "address",
          "name": "from",
          "type": "address"
        },
        {
          "internalType": "address",
          "name": "to",
          "type": "address"
        },
        {
          "internalType": "uint256",
          "name": "tokenId",
          "type": "uint256"
        },
        {
          "internalType": "bytes",
          "name": "_data",
          "type": "bytes"
        }
      ],
      "name": "safeTransferFrom",
      "outputs": [],
      "stateMutability": "nonpayable",
      "type": "function"
    },
    {
      "inputs": [
        {
          "internalType": "address",
          "name": "operator",
          "type": "address"
        },
        {
          "internalType": "bool",
          "name": "approved",
          "type": "bool"
        }
      ],
      "name": "setApprovalForAll",
      "outputs": [],
      "stateMutability": "nonpayable",
      "type": "function"
    },
    {
      "inputs": [
        {
          "internalType": "uint256",
          "name": "tokenId",
          "type": "uint256"
        },
        {
          "internalType": "string",
          "name": "tokenURI",
          "type": "string"
        }
      ],
      "name": "setTokenURI",
      "outputs": [],
      "stateMutability": "nonpayable",
      "type": "function"
    },
    {
      "inputs": [
        {
          "internalType": "bytes4",
          "name": "interfaceId",
          "type": "bytes4"
        }
      ],
      "name": "supportsInterface",
      "outputs": [
        {
          "internalType": "bool",
          "name": "",
          "type": "bool"
        }
      ],
      "stateMutability": "view",
      "type": "function"
    },
    {
      "inputs": [],
      "name": "symbol",
      "outputs": [
        {
          "internalType": "string",
          "name": "",
          "type": "string"
        }
      ],
      "stateMutability": "view",
      "type": "function"
    },
    {
      "inputs": [
        {
          "internalType": "uint256",
          "name": "tokenId",
          "type": "uint256"
        }
      ],
      "name": "tokenURI",
      "outputs": [
        {
          "internalType": "string",
          "name": "",
          "type": "string"
        }
      ],
      "stateMutability": "view",
      "type": "function"
    },
    {
      "inputs": [
        {
          "internalType": "address",
          "name": "from",
          "type": "address"
        },
        {
          "internalType": "address",
          "name": "to",
          "type": "address"
        },
        {
          "internalType": "uint256",
          "name": "tokenId",
          "type": "uint256"
        }
      ],
      "name": "transferFrom",
      "outputs": [],
      "stateMutability": "nonpayable",
      "type": "function"
    },
    {
      "inputs": [
        {
          "internalType": "address",
          "name": "newOwner",
          "type": "address"
        }
      ],
      "name": "transferOwnership",
      "outputs": [],
      "stateMutability": "nonpayable",
      "type": "function"
    }
  ],
  "bytecode": "0x60806040523480156200001157600080fd5b506040518060400160405280600981526020017f4e4654204272696b7300000000000000000000000000000000000000000000008152506040518060400160405280600481526020017f4e46544200000000000000000000000000000000000000000000000000000000815250816000908051906020019062000096929190620001a6565b508060019080519060200190620000af929190620001a6565b505050620000d2620000c6620000d860201b60201c565b620000e060201b60201c565b620002bb565b600033905090565b6000600760009054906101000a900473ffffffffffffffffffffffffffffffffffffffff16905081600760006101000a81548173ffffffffffffffffffffffffffffffffffffffff021916908373ffffffffffffffffffffffffffffffffffffffff1602179055508173ffffffffffffffffffffffffffffffffffffffff168173ffffffffffffffffffffffffffffffffffffffff167f8be0079c531659141344cd1fd0a4f28419497f9722a3daafe3b4186f6b6457e060405160405180910390a35050565b828054620001b49062000256565b90600052602060002090601f016020900481019282620001d8576000855562000224565b82601f10620001f357805160ff191683800117855562000224565b8280016001018555821562000224579182015b828111156200022357825182559160200191906001019062000206565b5b50905062000233919062000237565b5090565b5b808211156200025257600081600090555060010162000238565b5090565b600060028204905060018216806200026f57607f821691505b602082108114156200028657620002856200028c565b5b50919050565b7f4e487b7100000000000000000000000000000000000000000000000000000000600052602260045260246000fd5b6131ec80620002cb6000396000f3fe6080604052600436106101095760003560e01c8063715018a611610095578063b88d4fde11610064578063b88d4fde14610367578063c87b56dd14610390578063e985e9c5146103cd578063eacabe141461040a578063f2fde38b1461043a57610109565b8063715018a6146102d15780638da5cb5b146102e857806395d89b4114610313578063a22cb4651461033e57610109565b8063162094c4116100dc578063162094c4146101dc57806323b872dd1461020557806342842e0e1461022e5780636352211e1461025757806370a082311461029457610109565b806301ffc9a71461010e57806306fdde031461014b578063081812fc14610176578063095ea7b3146101b3575b600080fd5b34801561011a57600080fd5b50610135600480360381019061013091906120b5565b610463565b6040516101429190612578565b60405180910390f35b34801561015757600080fd5b50610160610545565b60405161016d9190612593565b60405180910390f35b34801561018257600080fd5b5061019d60048036038101906101989190612107565b6105d7565b6040516101aa9190612511565b60405180910390f35b3480156101bf57600080fd5b506101da60048036038101906101d59190612079565b61065c565b005b3480156101e857600080fd5b5061020360048036038101906101fe9190612130565b610774565b005b34801561021157600080fd5b5061022c60048036038101906102279190611f1f565b6107d2565b005b34801561023a57600080fd5b5061025560048036038101906102509190611f1f565b610832565b005b34801561026357600080fd5b5061027e60048036038101906102799190612107565b610852565b60405161028b9190612511565b60405180910390f35b3480156102a057600080fd5b506102bb60048036038101906102b69190611eba565b610904565b6040516102c89190612815565b60405180910390f35b3480156102dd57600080fd5b506102e66109bc565b005b3480156102f457600080fd5b506102fd610a44565b60405161030a9190612511565b60405180910390f35b34801561031f57600080fd5b50610328610a6e565b6040516103359190612593565b60405180910390f35b34801561034a57600080fd5b5061036560048036038101906103609190611fe9565b610b00565b005b34801561037357600080fd5b5061038e60048036038101906103899190611f6e565b610b16565b005b34801561039c57600080fd5b506103b760048036038101906103b29190612107565b610b78565b6040516103c49190612593565b60405180910390f35b3480156103d957600080fd5b506103f460048036038101906103ef9190611ee3565b610cca565b6040516104019190612578565b60405180910390f35b610424600480360381019061041f9190612025565b610d5e565b6040516104319190612815565b60405180910390f35b34801561044657600080fd5b50610461600480360381019061045c9190611eba565b610dda565b005b60007f80ac58cd000000000000000000000000000000000000000000000000000000007bffffffffffffffffffffffffffffffffffffffffffffffffffffffff1916827bffffffffffffffffffffffffffffffffffffffffffffffffffffffff1916148061052e57507f5b5e139f000000000000000000000000000000000000000000000000000000007bffffffffffffffffffffffffffffffffffffffffffffffffffffffff1916827bffffffffffffffffffffffffffffffffffffffffffffffffffffffff1916145b8061053e575061053d82610ed2565b5b9050919050565b60606000805461055490612a6b565b80601f016020809104026020016040519081016040528092919081815260200182805461058090612a6b565b80156105cd5780601f106105a2576101008083540402835291602001916105cd565b820191906000526020600020905b8154815290600101906020018083116105b057829003601f168201915b5050505050905090565b60006105e282610f3c565b610621576040517f08c379a000000000000000000000000000000000000000000000000000000000815260040161061890612755565b60405180910390fd5b6004600083815260200190815260200160002060009054906101000a900473ffffffffffffffffffffffffffffffffffffffff169050919050565b600061066782610852565b90508073ffffffffffffffffffffffffffffffffffffffff168373ffffffffffffffffffffffffffffffffffffffff1614156106d8576040517f08c379a00000000000000000000000000000000000000000000000000000000081526004016106cf906127b5565b60405180910390fd5b8073ffffffffffffffffffffffffffffffffffffffff166106f7610fa8565b73ffffffffffffffffffffffffffffffffffffffff161480610726575061072581610720610fa8565b610cca565b5b610765576040517f08c379a000000000000000000000000000000000000000000000000000000000815260040161075c90612695565b60405180910390fd5b61076f8383610fb0565b505050565b61078561077f610fa8565b83611069565b6107c4576040517f08c379a00000000000000000000000000000000000000000000000000000000081526004016107bb906127d5565b60405180910390fd5b6107ce8282611147565b5050565b6107e36107dd610fa8565b82611069565b610822576040517f08c379a0000000000000000000000000000000000000000000000000000000008152600401610819906127d5565b60405180910390fd5b61082d8383836111bb565b505050565b61084d83838360405180602001604052806000815250610b16565b505050565b6000806002600084815260200190815260200160002060009054906101000a900473ffffffffffffffffffffffffffffffffffffffff169050600073ffffffffffffffffffffffffffffffffffffffff168173ffffffffffffffffffffffffffffffffffffffff1614156108fb576040517f08c379a00000000000000000000000000000000000000000000000000000000081526004016108f2906126d5565b60405180910390fd5b80915050919050565b60008073ffffffffffffffffffffffffffffffffffffffff168273ffffffffffffffffffffffffffffffffffffffff161415610975576040517f08c379a000000000000000000000000000000000000000000000000000000000815260040161096c906126b5565b60405180910390fd5b600360008373ffffffffffffffffffffffffffffffffffffffff1673ffffffffffffffffffffffffffffffffffffffff168152602001908152602001600020549050919050565b6109c4610fa8565b73ffffffffffffffffffffffffffffffffffffffff166109e2610a44565b73ffffffffffffffffffffffffffffffffffffffff1614610a38576040517f08c379a0000000000000000000000000000000000000000000000000000000008152600401610a2f90612775565b60405180910390fd5b610a426000611422565b565b6000600760009054906101000a900473ffffffffffffffffffffffffffffffffffffffff16905090565b606060018054610a7d90612a6b565b80601f0160208091040260200160405190810160405280929190818152602001828054610aa990612a6b565b8015610af65780601f10610acb57610100808354040283529160200191610af6565b820191906000526020600020905b815481529060010190602001808311610ad957829003601f168201915b5050505050905090565b610b12610b0b610fa8565b83836114e8565b5050565b610b27610b21610fa8565b83611069565b610b66576040517f08c379a0000000000000000000000000000000000000000000000000000000008152600401610b5d906127d5565b60405180910390fd5b610b7284848484611655565b50505050565b6060610b8382610f3c565b610bc2576040517f08c379a0000000000000000000000000000000000000000000000000000000008152600401610bb990612735565b60405180910390fd5b6000600660008481526020019081526020016000208054610be290612a6b565b80601f0160208091040260200160405190810160405280929190818152602001828054610c0e90612a6b565b8015610c5b5780601f10610c3057610100808354040283529160200191610c5b565b820191906000526020600020905b815481529060010190602001808311610c3e57829003601f168201915b505050505090506000610c6c6116b1565b9050600081511415610c82578192505050610cc5565b600082511115610cb7578082604051602001610c9f9291906124ed565b60405160208183030381529060405292505050610cc5565b610cc0846116c8565b925050505b919050565b6000600560008473ffffffffffffffffffffffffffffffffffffffff1673ffffffffffffffffffffffffffffffffffffffff16815260200190815260200160002060008373ffffffffffffffffffffffffffffffffffffffff1673ffffffffffffffffffffffffffffffffffffffff16815260200190815260200160002060009054906101000a900460ff16905092915050565b6000600a341015610da4576040517f08c379a0000000000000000000000000000000000000000000000000000000008152600401610d9b906127f5565b60405180910390fd5b610dae600861176f565b6000610dba6008611785565b9050610dc68482611793565b610dd08184611147565b8091505092915050565b610de2610fa8565b73ffffffffffffffffffffffffffffffffffffffff16610e00610a44565b73ffffffffffffffffffffffffffffffffffffffff1614610e56576040517f08c379a0000000000000000000000000000000000000000000000000000000008152600401610e4d90612775565b60405180910390fd5b600073ffffffffffffffffffffffffffffffffffffffff168173ffffffffffffffffffffffffffffffffffffffff161415610ec6576040517f08c379a0000000000000000000000000000000000000000000000000000000008152600401610ebd906125d5565b60405180910390fd5b610ecf81611422565b50565b60007f01ffc9a7000000000000000000000000000000000000000000000000000000007bffffffffffffffffffffffffffffffffffffffffffffffffffffffff1916827bffffffffffffffffffffffffffffffffffffffffffffffffffffffff1916149050919050565b60008073ffffffffffffffffffffffffffffffffffffffff166002600084815260200190815260200160002060009054906101000a900473ffffffffffffffffffffffffffffffffffffffff1673ffffffffffffffffffffffffffffffffffffffff1614159050919050565b600033905090565b816004600083815260200190815260200160002060006101000a81548173ffffffffffffffffffffffffffffffffffffffff021916908373ffffffffffffffffffffffffffffffffffffffff160217905550808273ffffffffffffffffffffffffffffffffffffffff1661102383610852565b73ffffffffffffffffffffffffffffffffffffffff167f8c5be1e5ebec7d5bd14f71427d1e84f3dd0314c0f7b2291e5b200ac8c7c3b92560405160405180910390a45050565b600061107482610f3c565b6110b3576040517f08c379a00000000000000000000000000000000000000000000000000000000081526004016110aa90612675565b60405180910390fd5b60006110be83610852565b90508073ffffffffffffffffffffffffffffffffffffffff168473ffffffffffffffffffffffffffffffffffffffff16148061110057506110ff8185610cca565b5b8061113e57508373ffffffffffffffffffffffffffffffffffffffff16611126846105d7565b73ffffffffffffffffffffffffffffffffffffffff16145b91505092915050565b61115082610f3c565b61118f576040517f08c379a0000000000000000000000000000000000000000000000000000000008152600401611186906126f5565b60405180910390fd5b806006600084815260200190815260200160002090805190602001906111b6929190611cde565b505050565b8273ffffffffffffffffffffffffffffffffffffffff166111db82610852565b73ffffffffffffffffffffffffffffffffffffffff1614611231576040517f08c379a0000000000000000000000000000000000000000000000000000000008152600401611228906125f5565b60405180910390fd5b600073ffffffffffffffffffffffffffffffffffffffff168273ffffffffffffffffffffffffffffffffffffffff1614156112a1576040517f08c379a000000000000000000000000000000000000000000000000000000000815260040161129890612635565b60405180910390fd5b6112ac83838361196d565b6112b7600082610fb0565b6001600360008573ffffffffffffffffffffffffffffffffffffffff1673ffffffffffffffffffffffffffffffffffffffff16815260200190815260200160002060008282546113079190612981565b925050819055506001600360008473ffffffffffffffffffffffffffffffffffffffff1673ffffffffffffffffffffffffffffffffffffffff168152602001908152602001600020600082825461135e91906128fa565b92505081905550816002600083815260200190815260200160002060006101000a81548173ffffffffffffffffffffffffffffffffffffffff021916908373ffffffffffffffffffffffffffffffffffffffff160217905550808273ffffffffffffffffffffffffffffffffffffffff168473ffffffffffffffffffffffffffffffffffffffff167fddf252ad1be2c89b69c2b068fc378daa952ba7f163c4a11628f55a4df523b3ef60405160405180910390a461141d838383611972565b505050565b6000600760009054906101000a900473ffffffffffffffffffffffffffffffffffffffff16905081600760006101000a81548173ffffffffffffffffffffffffffffffffffffffff021916908373ffffffffffffffffffffffffffffffffffffffff1602179055508173ffffffffffffffffffffffffffffffffffffffff168173ffffffffffffffffffffffffffffffffffffffff167f8be0079c531659141344cd1fd0a4f28419497f9722a3daafe3b4186f6b6457e060405160405180910390a35050565b8173ffffffffffffffffffffffffffffffffffffffff168373ffffffffffffffffffffffffffffffffffffffff161415611557576040517f08c379a000000000000000000000000000000000000000000000000000000000815260040161154e90612655565b60405180910390fd5b80600560008573ffffffffffffffffffffffffffffffffffffffff1673ffffffffffffffffffffffffffffffffffffffff16815260200190815260200160002060008473ffffffffffffffffffffffffffffffffffffffff1673ffffffffffffffffffffffffffffffffffffffff16815260200190815260200160002060006101000a81548160ff0219169083151502179055508173ffffffffffffffffffffffffffffffffffffffff168373ffffffffffffffffffffffffffffffffffffffff167f17307eab39ab6107e8899845ad3d59bd9653f200f220920489ca2b5937696c31836040516116489190612578565b60405180910390a3505050565b6116608484846111bb565b61166c84848484611977565b6116ab576040517f08c379a00000000000000000000000000000000000000000000000000000000081526004016116a2906125b5565b60405180910390fd5b50505050565b606060405180602001604052806000815250905090565b60606116d382610f3c565b611712576040517f08c379a000000000000000000000000000000000000000000000000000000000815260040161170990612795565b60405180910390fd5b600061171c6116b1565b9050600081511161173c5760405180602001604052806000815250611767565b8061174684611b0e565b6040516020016117579291906124ed565b6040516020818303038152906040525b915050919050565b6001816000016000828254019250508190555050565b600081600001549050919050565b600073ffffffffffffffffffffffffffffffffffffffff168273ffffffffffffffffffffffffffffffffffffffff161415611803576040517f08c379a00000000000000000000000000000000000000000000000000000000081526004016117fa90612715565b60405180910390fd5b61180c81610f3c565b1561184c576040517f08c379a000000000000000000000000000000000000000000000000000000000815260040161184390612615565b60405180910390fd5b6118586000838361196d565b6001600360008473ffffffffffffffffffffffffffffffffffffffff1673ffffffffffffffffffffffffffffffffffffffff16815260200190815260200160002060008282546118a891906128fa565b92505081905550816002600083815260200190815260200160002060006101000a81548173ffffffffffffffffffffffffffffffffffffffff021916908373ffffffffffffffffffffffffffffffffffffffff160217905550808273ffffffffffffffffffffffffffffffffffffffff16600073ffffffffffffffffffffffffffffffffffffffff167fddf252ad1be2c89b69c2b068fc378daa952ba7f163c4a11628f55a4df523b3ef60405160405180910390a461196960008383611972565b5050565b505050565b505050565b60006119988473ffffffffffffffffffffffffffffffffffffffff16611cbb565b15611b01578373ffffffffffffffffffffffffffffffffffffffff1663150b7a026119c1610fa8565b8786866040518563ffffffff1660e01b81526004016119e3949392919061252c565b602060405180830381600087803b1580156119fd57600080fd5b505af1925050508015611a2e57506040513d601f19601f82011682018060405250810190611a2b91906120de565b60015b611ab1573d8060008114611a5e576040519150601f19603f3d011682016040523d82523d6000602084013e611a63565b606091505b50600081511415611aa9576040517f08c379a0000000000000000000000000000000000000000000000000000000008152600401611aa0906125b5565b60405180910390fd5b805181602001fd5b63150b7a0260e01b7bffffffffffffffffffffffffffffffffffffffffffffffffffffffff1916817bffffffffffffffffffffffffffffffffffffffffffffffffffffffff191614915050611b06565b600190505b949350505050565b60606000821415611b56576040518060400160405280600181526020017f30000000000000000000000000000000000000000000000000000000000000008152509050611cb6565b600082905060005b60008214611b88578080611b7190612ace565b915050600a82611b819190612950565b9150611b5e565b60008167ffffffffffffffff811115611bca577f4e487b7100000000000000000000000000000000000000000000000000000000600052604160045260246000fd5b6040519080825280601f01601f191660200182016040528015611bfc5781602001600182028036833780820191505090505b5090505b60008514611caf57600182611c159190612981565b9150600a85611c249190612b17565b6030611c3091906128fa565b60f81b818381518110611c6c577f4e487b7100000000000000000000000000000000000000000000000000000000600052603260045260246000fd5b60200101907effffffffffffffffffffffffffffffffffffffffffffffffffffffffffffff1916908160001a905350600a85611ca89190612950565b9450611c00565b8093505050505b919050565b6000808273ffffffffffffffffffffffffffffffffffffffff163b119050919050565b828054611cea90612a6b565b90600052602060002090601f016020900481019282611d0c5760008555611d53565b82601f10611d2557805160ff1916838001178555611d53565b82800160010185558215611d53579182015b82811115611d52578251825591602001919060010190611d37565b5b509050611d609190611d64565b5090565b5b80821115611d7d576000816000905550600101611d65565b5090565b6000611d94611d8f84612855565b612830565b905082815260208101848484011115611dac57600080fd5b611db7848285612a29565b509392505050565b6000611dd2611dcd84612886565b612830565b905082815260208101848484011115611dea57600080fd5b611df5848285612a29565b509392505050565b600081359050611e0c8161315a565b92915050565b600081359050611e2181613171565b92915050565b600081359050611e3681613188565b92915050565b600081519050611e4b81613188565b92915050565b600082601f830112611e6257600080fd5b8135611e72848260208601611d81565b91505092915050565b600082601f830112611e8c57600080fd5b8135611e9c848260208601611dbf565b91505092915050565b600081359050611eb48161319f565b92915050565b600060208284031215611ecc57600080fd5b6000611eda84828501611dfd565b91505092915050565b60008060408385031215611ef657600080fd5b6000611f0485828601611dfd565b9250506020611f1585828601611dfd565b9150509250929050565b600080600060608486031215611f3457600080fd5b6000611f4286828701611dfd565b9350506020611f5386828701611dfd565b9250506040611f6486828701611ea5565b9150509250925092565b60008060008060808587031215611f8457600080fd5b6000611f9287828801611dfd565b9450506020611fa387828801611dfd565b9350506040611fb487828801611ea5565b925050606085013567ffffffffffffffff811115611fd157600080fd5b611fdd87828801611e51565b91505092959194509250565b60008060408385031215611ffc57600080fd5b600061200a85828601611dfd565b925050602061201b85828601611e12565b9150509250929050565b6000806040838503121561203857600080fd5b600061204685828601611dfd565b925050602083013567ffffffffffffffff81111561206357600080fd5b61206f85828601611e7b565b9150509250929050565b6000806040838503121561208c57600080fd5b600061209a85828601611dfd565b92505060206120ab85828601611ea5565b9150509250929050565b6000602082840312156120c757600080fd5b60006120d584828501611e27565b91505092915050565b6000602082840312156120f057600080fd5b60006120fe84828501611e3c565b91505092915050565b60006020828403121561211957600080fd5b600061212784828501611ea5565b91505092915050565b6000806040838503121561214357600080fd5b600061215185828601611ea5565b925050602083013567ffffffffffffffff81111561216e57600080fd5b61217a85828601611e7b565b9150509250929050565b61218d816129b5565b82525050565b61219c816129c7565b82525050565b60006121ad826128b7565b6121b781856128cd565b93506121c7818560208601612a38565b6121d081612c04565b840191505092915050565b60006121e6826128c2565b6121f081856128de565b9350612200818560208601612a38565b61220981612c04565b840191505092915050565b600061221f826128c2565b61222981856128ef565b9350612239818560208601612a38565b80840191505092915050565b60006122526032836128de565b915061225d82612c15565b604082019050919050565b60006122756026836128de565b915061228082612c64565b604082019050919050565b60006122986025836128de565b91506122a382612cb3565b604082019050919050565b60006122bb601c836128de565b91506122c682612d02565b602082019050919050565b60006122de6024836128de565b91506122e982612d2b565b604082019050919050565b60006123016019836128de565b915061230c82612d7a565b602082019050919050565b6000612324602c836128de565b915061232f82612da3565b604082019050919050565b60006123476038836128de565b915061235282612df2565b604082019050919050565b600061236a602a836128de565b915061237582612e41565b604082019050919050565b600061238d6029836128de565b915061239882612e90565b604082019050919050565b60006123b0602e836128de565b91506123bb82612edf565b604082019050919050565b60006123d36020836128de565b91506123de82612f2e565b602082019050919050565b60006123f66031836128de565b915061240182612f57565b604082019050919050565b6000612419602c836128de565b915061242482612fa6565b604082019050919050565b600061243c6020836128de565b915061244782612ff5565b602082019050919050565b600061245f602f836128de565b915061246a8261301e565b604082019050919050565b60006124826021836128de565b915061248d8261306d565b604082019050919050565b60006124a56031836128de565b91506124b0826130bc565b604082019050919050565b60006124c86021836128de565b91506124d38261310b565b604082019050919050565b6124e781612a1f565b82525050565b60006124f98285612214565b91506125058284612214565b91508190509392505050565b60006020820190506125266000830184612184565b92915050565b60006080820190506125416000830187612184565b61254e6020830186612184565b61255b60408301856124de565b818103606083015261256d81846121a2565b905095945050505050565b600060208201905061258d6000830184612193565b92915050565b600060208201905081810360008301526125ad81846121db565b905092915050565b600060208201905081810360008301526125ce81612245565b9050919050565b600060208201905081810360008301526125ee81612268565b9050919050565b6000602082019050818103600083015261260e8161228b565b9050919050565b6000602082019050818103600083015261262e816122ae565b9050919050565b6000602082019050818103600083015261264e816122d1565b9050919050565b6000602082019050818103600083015261266e816122f4565b9050919050565b6000602082019050818103600083015261268e81612317565b9050919050565b600060208201905081810360008301526126ae8161233a565b9050919050565b600060208201905081810360008301526126ce8161235d565b9050919050565b600060208201905081810360008301526126ee81612380565b9050919050565b6000602082019050818103600083015261270e816123a3565b9050919050565b6000602082019050818103600083015261272e816123c6565b9050919050565b6000602082019050818103600083015261274e816123e9565b9050919050565b6000602082019050818103600083015261276e8161240c565b9050919050565b6000602082019050818103600083015261278e8161242f565b9050919050565b600060208201905081810360008301526127ae81612452565b9050919050565b600060208201905081810360008301526127ce81612475565b9050919050565b600060208201905081810360008301526127ee81612498565b9050919050565b6000602082019050818103600083015261280e816124bb565b9050919050565b600060208201905061282a60008301846124de565b92915050565b600061283a61284b565b90506128468282612a9d565b919050565b6000604051905090565b600067ffffffffffffffff8211156128705761286f612bd5565b5b61287982612c04565b9050602081019050919050565b600067ffffffffffffffff8211156128a1576128a0612bd5565b5b6128aa82612c04565b9050602081019050919050565b600081519050919050565b600081519050919050565b600082825260208201905092915050565b600082825260208201905092915050565b600081905092915050565b600061290582612a1f565b915061291083612a1f565b9250827fffffffffffffffffffffffffffffffffffffffffffffffffffffffffffffffff0382111561294557612944612b48565b5b828201905092915050565b600061295b82612a1f565b915061296683612a1f565b92508261297657612975612b77565b5b828204905092915050565b600061298c82612a1f565b915061299783612a1f565b9250828210156129aa576129a9612b48565b5b828203905092915050565b60006129c0826129ff565b9050919050565b60008115159050919050565b60007fffffffff0000000000000000000000000000000000000000000000000000000082169050919050565b600073ffffffffffffffffffffffffffffffffffffffff82169050919050565b6000819050919050565b82818337600083830152505050565b60005b83811015612a56578082015181840152602081019050612a3b565b83811115612a65576000848401525b50505050565b60006002820490506001821680612a8357607f821691505b60208210811415612a9757612a96612ba6565b5b50919050565b612aa682612c04565b810181811067ffffffffffffffff82111715612ac557612ac4612bd5565b5b80604052505050565b6000612ad982612a1f565b91507fffffffffffffffffffffffffffffffffffffffffffffffffffffffffffffffff821415612b0c57612b0b612b48565b5b600182019050919050565b6000612b2282612a1f565b9150612b2d83612a1f565b925082612b3d57612b3c612b77565b5b828206905092915050565b7f4e487b7100000000000000000000000000000000000000000000000000000000600052601160045260246000fd5b7f4e487b7100000000000000000000000000000000000000000000000000000000600052601260045260246000fd5b7f4e487b7100000000000000000000000000000000000000000000000000000000600052602260045260246000fd5b7f4e487b7100000000000000000000000000000000000000000000000000000000600052604160045260246000fd5b6000601f19601f8301169050919050565b7f4552433732313a207472616e7366657220746f206e6f6e20455243373231526560008201527f63656976657220696d706c656d656e7465720000000000000000000000000000602082015250565b7f4f776e61626c653a206e6577206f776e657220697320746865207a65726f206160008201527f6464726573730000000000000000000000000000000000000000000000000000602082015250565b7f4552433732313a207472616e736665722066726f6d20696e636f72726563742060008201527f6f776e6572000000000000000000000000000000000000000000000000000000602082015250565b7f4552433732313a20746f6b656e20616c7265616479206d696e74656400000000600082015250565b7f4552433732313a207472616e7366657220746f20746865207a65726f2061646460008201527f7265737300000000000000000000000000000000000000000000000000000000602082015250565b7f4552433732313a20617070726f766520746f2063616c6c657200000000000000600082015250565b7f4552433732313a206f70657261746f7220717565727920666f72206e6f6e657860008201527f697374656e7420746f6b656e0000000000000000000000000000000000000000602082015250565b7f4552433732313a20617070726f76652063616c6c6572206973206e6f74206f7760008201527f6e6572206e6f7220617070726f76656420666f7220616c6c0000000000000000602082015250565b7f4552433732313a2062616c616e636520717565727920666f7220746865207a6560008201527f726f206164647265737300000000000000000000000000000000000000000000602082015250565b7f4552433732313a206f776e657220717565727920666f72206e6f6e657869737460008201527f656e7420746f6b656e0000000000000000000000000000000000000000000000602082015250565b7f45524337323155524953746f726167653a2055524920736574206f66206e6f6e60008201527f6578697374656e7420746f6b656e000000000000000000000000000000000000602082015250565b7f4552433732313a206d696e7420746f20746865207a65726f2061646472657373600082015250565b7f45524337323155524953746f726167653a2055524920717565727920666f722060008201527f6e6f6e6578697374656e7420746f6b656e000000000000000000000000000000602082015250565b7f4552433732313a20617070726f76656420717565727920666f72206e6f6e657860008201527f697374656e7420746f6b656e0000000000000000000000000000000000000000602082015250565b7f4f776e61626c653a2063616c6c6572206973206e6f7420746865206f776e6572600082015250565b7f4552433732314d657461646174613a2055524920717565727920666f72206e6f60008201527f6e6578697374656e7420746f6b656e0000000000000000000000000000000000602082015250565b7f4552433732313a20617070726f76616c20746f2063757272656e74206f776e6560008201527f7200000000000000000000000000000000000000000000000000000000000000602082015250565b7f4552433732313a207472616e736665722063616c6c6572206973206e6f74206f60008201527f776e6572206e6f7220617070726f766564000000000000000000000000000000602082015250565b7f4e6f7420656e6f756768204554482073656e743b20636865636b20707269636560008201527f2100000000000000000000000000000000000000000000000000000000000000602082015250565b613163816129b5565b811461316e57600080fd5b50565b61317a816129c7565b811461318557600080fd5b50565b613191816129d3565b811461319c57600080fd5b50565b6131a881612a1f565b81146131b357600080fd5b5056fea26469706673582212206fb6df0d8927696f26182d3fc8162e2e8d80d9fd668506f156cb5b1d22dacb0e64736f6c63430008010033",
  "linkReferences": {},
  "deployedLinkReferences": {}
}